{
  "_format": "hh-sol-artifact-1",
  "contractName": "Lottery",
  "sourceName": "contracts/Lottery.sol",
  "abi": [
    {
      "inputs": [
        {
          "internalType": "address",
          "name": "vrfCoordinator",
          "type": "address"
        },
        {
          "internalType": "address",
          "name": "link",
          "type": "address"
        },
        {
          "internalType": "bytes32",
          "name": "_keyHash",
          "type": "bytes32"
        },
        {
          "internalType": "uint256",
          "name": "_fee",
          "type": "uint256"
        }
      ],
      "stateMutability": "nonpayable",
      "type": "constructor"
    },
    {
      "anonymous": false,
      "inputs": [
        {
          "indexed": true,
          "internalType": "address",
          "name": "previousOwner",
          "type": "address"
        },
        {
          "indexed": true,
          "internalType": "address",
          "name": "newOwner",
          "type": "address"
        }
      ],
      "name": "OwnershipTransferred",
      "type": "event"
    },
    {
      "anonymous": false,
      "inputs": [
        {
          "indexed": true,
          "internalType": "uint256",
          "name": "time",
          "type": "uint256"
        }
      ],
      "name": "newLotteryStarted",
      "type": "event"
    },
    {
      "anonymous": false,
      "inputs": [
        {
          "indexed": true,
          "internalType": "address",
          "name": "newEntry",
          "type": "address"
        },
        {
          "indexed": true,
          "internalType": "uint256",
          "name": "time",
          "type": "uint256"
        }
      ],
      "name": "newParticipant",
      "type": "event"
    },
    {
      "anonymous": false,
      "inputs": [
        {
          "indexed": true,
          "internalType": "uint256",
          "name": "newPrice",
          "type": "uint256"
        }
      ],
      "name": "priceChange",
      "type": "event"
    },
    {
      "anonymous": false,
      "inputs": [
        {
          "indexed": true,
          "internalType": "uint256",
          "name": "newTime",
          "type": "uint256"
        }
      ],
      "name": "timeChange",
      "type": "event"
    },
    {
      "anonymous": false,
      "inputs": [
        {
          "indexed": true,
          "internalType": "address",
          "name": "_winner",
          "type": "address"
        },
        {
          "indexed": true,
          "internalType": "uint256",
          "name": "totalWinning",
          "type": "uint256"
        },
        {
          "indexed": true,
          "internalType": "uint256",
          "name": "time",
          "type": "uint256"
        }
      ],
      "name": "winnerHasBeenChosen",
      "type": "event"
    },
    {
      "inputs": [],
      "name": "chooseWinner",
      "outputs": [],
      "stateMutability": "nonpayable",
      "type": "function"
    },
    {
      "inputs": [],
      "name": "endTime",
      "outputs": [
        {
          "internalType": "uint256",
          "name": "",
          "type": "uint256"
        }
      ],
      "stateMutability": "view",
      "type": "function"
    },
    {
      "inputs": [],
      "name": "enterPool",
      "outputs": [],
      "stateMutability": "payable",
      "type": "function"
    },
    {
      "inputs": [
        {
          "internalType": "uint256",
          "name": "newPrice",
          "type": "uint256"
        }
      ],
      "name": "entryPriceInWei",
      "outputs": [],
      "stateMutability": "nonpayable",
      "type": "function"
    },
    {
      "inputs": [],
      "name": "getArrayLength",
      "outputs": [
        {
          "internalType": "uint256",
          "name": "length",
          "type": "uint256"
        }
      ],
      "stateMutability": "view",
      "type": "function"
    },
    {
      "inputs": [],
      "name": "getBalance",
      "outputs": [
        {
          "internalType": "uint256",
          "name": "contractBalance",
          "type": "uint256"
        }
      ],
      "stateMutability": "view",
      "type": "function"
    },
    {
      "inputs": [],
      "name": "lotteryProfitsWithdraw",
      "outputs": [],
      "stateMutability": "nonpayable",
      "type": "function"
    },
    {
      "inputs": [],
      "name": "owner",
      "outputs": [
        {
          "internalType": "address",
          "name": "",
          "type": "address"
        }
      ],
      "stateMutability": "view",
      "type": "function"
    },
    {
      "inputs": [
        {
          "internalType": "uint256",
          "name": "",
          "type": "uint256"
        }
      ],
      "name": "participants",
      "outputs": [
        {
          "internalType": "address payable",
          "name": "",
          "type": "address"
        }
      ],
      "stateMutability": "view",
      "type": "function"
    },
    {
      "inputs": [],
      "name": "price",
      "outputs": [
        {
          "internalType": "uint256",
          "name": "",
          "type": "uint256"
        }
      ],
      "stateMutability": "view",
      "type": "function"
    },
    {
      "inputs": [],
      "name": "randomResult",
      "outputs": [
        {
          "internalType": "uint256",
          "name": "",
          "type": "uint256"
        }
      ],
      "stateMutability": "view",
      "type": "function"
    },
    {
      "inputs": [
        {
          "internalType": "bytes32",
          "name": "requestId",
          "type": "bytes32"
        },
        {
          "internalType": "uint256",
          "name": "randomness",
          "type": "uint256"
        }
      ],
      "name": "rawFulfillRandomness",
      "outputs": [],
      "stateMutability": "nonpayable",
      "type": "function"
    },
    {
      "inputs": [],
      "name": "renounceOwnership",
      "outputs": [],
      "stateMutability": "nonpayable",
      "type": "function"
    },
    {
      "inputs": [
        {
          "internalType": "uint256",
          "name": "newTime",
          "type": "uint256"
        }
      ],
      "name": "settingTimeInSeconds",
      "outputs": [],
      "stateMutability": "nonpayable",
      "type": "function"
    },
    {
      "inputs": [],
      "name": "startNewLottery",
      "outputs": [],
      "stateMutability": "nonpayable",
      "type": "function"
    },
    {
      "inputs": [],
      "name": "startTime",
      "outputs": [
        {
          "internalType": "uint256",
          "name": "",
          "type": "uint256"
        }
      ],
      "stateMutability": "view",
      "type": "function"
    },
    {
      "inputs": [],
      "name": "time",
      "outputs": [
        {
          "internalType": "uint256",
          "name": "",
          "type": "uint256"
        }
      ],
      "stateMutability": "view",
      "type": "function"
    },
    {
      "inputs": [],
      "name": "totalCurrentPool",
      "outputs": [
        {
          "internalType": "uint256",
          "name": "",
          "type": "uint256"
        }
      ],
      "stateMutability": "view",
      "type": "function"
    },
    {
      "inputs": [
        {
          "internalType": "address",
          "name": "newOwner",
          "type": "address"
        }
      ],
      "name": "transferOwnership",
      "outputs": [],
      "stateMutability": "nonpayable",
      "type": "function"
    },
    {
      "inputs": [],
      "name": "winner",
      "outputs": [
        {
          "internalType": "address payable",
          "name": "",
          "type": "address"
        }
      ],
      "stateMutability": "view",
      "type": "function"
    },
    {
      "inputs": [
        {
          "internalType": "address",
          "name": "",
          "type": "address"
        }
      ],
      "name": "winners",
      "outputs": [
        {
          "internalType": "uint256",
          "name": "",
          "type": "uint256"
        }
      ],
      "stateMutability": "view",
      "type": "function"
    },
    {
      "inputs": [
        {
          "internalType": "address payable",
          "name": "_receiver",
          "type": "address"
        }
      ],
      "name": "withdrawPrice",
      "outputs": [],
      "stateMutability": "nonpayable",
      "type": "function"
    }
  ],
  "bytecode": "0x60c0604052600a60045566071afd498d00006008556009805460ff60a01b191690553480156200002e57600080fd5b506040516200157338038062001573833981016040819052620000519162000114565b83836200005e33620000a7565b600180556001600160601b0319606092831b811660a052911b16608052600b829055600c81905542600681905560045462000099916200015c565b600755506200018392505050565b600080546001600160a01b038381166001600160a01b0319831681178455604051919092169283917f8be0079c531659141344cd1fd0a4f28419497f9722a3daafe3b4186f6b6457e09190a35050565b80516001600160a01b03811681146200010f57600080fd5b919050565b600080600080608085870312156200012b57600080fd5b6200013685620000f7565b93506200014660208601620000f7565b6040860151606090960151949790965092505050565b600082198211156200017e57634e487b7160e01b600052601160045260246000fd5b500190565b60805160601c60a05160601c6113b6620001bd600039600081816109950152610ffd015260008181610dbf0152610fce01526113b66000f3fe6080604052600436106101355760003560e01c8063715018a6116100ab578063a012d27c1161006f578063a012d27c14610300578063a035b1fe14610316578063c86994b11461032c578063cd38aa8714610341578063dfbf53ae14610356578063f2fde38b1461037657600080fd5b8063715018a61461027757806378e979251461028c5780637bd3d6b9146102a25780638da5cb5b146102c257806394985ddd146102e057600080fd5b806335c1d349116100fd57806335c1d349146101bf57806340dba069146101f757806342619f661461021757806350a3bd391461022d5780635727cb59146102355780636bd5450a1461024a57600080fd5b80630849cc991461013a57806312065fe01461015e57806316ada547146101715780631c36d86e146101875780633197cbb6146101a9575b600080fd5b34801561014657600080fd5b50600a545b6040519081526020015b60405180910390f35b34801561016a57600080fd5b504761014b565b34801561017d57600080fd5b5061014b60045481565b34801561019357600080fd5b506101a76101a23660046111f7565b610396565b005b3480156101b557600080fd5b5061014b60075481565b3480156101cb57600080fd5b506101df6101da3660046111f7565b610452565b6040516001600160a01b039091168152602001610155565b34801561020357600080fd5b506101a761021236600461118f565b61047c565b34801561022357600080fd5b5061014b600d5481565b6101a76105ec565b34801561024157600080fd5b506101a761079b565b34801561025657600080fd5b5061014b61026536600461118f565b60056020526000908152604090205481565b34801561028357600080fd5b506101a761088f565b34801561029857600080fd5b5061014b60065481565b3480156102ae57600080fd5b506101a76102bd3660046111f7565b6108c5565b3480156102ce57600080fd5b506000546001600160a01b03166101df565b3480156102ec57600080fd5b506101a76102fb3660046111d5565b61098a565b34801561030c57600080fd5b5061014b60035481565b34801561032257600080fd5b5061014b60085481565b34801561033857600080fd5b506101a7610a10565b34801561034d57600080fd5b506101a7610b72565b34801561036257600080fd5b506009546101df906001600160a01b031681565b34801561038257600080fd5b506101a761039136600461118f565b610c95565b600954600160a01b900460ff16151560011461041f5760405162461bcd60e51b815260206004820152603e60248201527f596f752063616e206f6e6c79206368616e6765207468652074696d652061667460448201527f6572207468652077696e6e657220686173206265656e2063686f73656e21000060648201526084015b60405180910390fd5b600481905560405181907f6785282c9fda1b1010a0d5f33a0a3fce1bd183e8e4bf33ee4521c033563beae390600090a250565b600a818154811061046257600080fd5b6000918252602090912001546001600160a01b0316905081565b600260015414156104cf5760405162461bcd60e51b815260206004820152601f60248201527f5265656e7472616e637947756172643a207265656e7472616e742063616c6c006044820152606401610416565b6002600155336000908152600560205260409020546105305760405162461bcd60e51b815260206004820152601e60248201527f596f752068617665206e6f7420776f6e2061206c6f74746572792079657400006044820152606401610416565b336000908152600560205260408082205490516001600160a01b03841691908381818185875af1925050503d8060008114610587576040519150601f19603f3d011682016040523d82523d6000602084013e61058c565b606091505b50509050806105d45760405162461bcd60e51b81526020600482015260146024820152732330b4b632b2103a379039b2b7321022ba3432b960611b6044820152606401610416565b50503360009081526005602052604081205560018055565b600854341461063d5760405162461bcd60e51b815260206004820152601f60248201527f596f75206e65656420746f2070617920746865206578616374207072696365006044820152606401610416565b60045460065461064d91906112ca565b428110158061065e5750600a546002115b6106b55760405162461bcd60e51b815260206004820152602260248201527f596f752063616e6e6f7420656e746572207468697320706f6f6c20616e796d6f604482015261726560f01b6064820152608401610416565b600954600160a01b900460ff161561070f5760405162461bcd60e51b815260206004820152601f60248201527f41206e6577206c6f74746572792068617320746f2062652073746172746564006044820152606401610416565b600a805460018101825560009182527fc65a7bb8d6351c1cf70c95a316cc6a92839c986682d98bc35f958f4883f9d2a80180546001600160a01b0319163317905560085460038054919290916107669084906112ca565b9091555050604051429033907f17ff06cf26b043c3dc035cf5412cea1a1de2708387010fcf4a9fb22a80d43c6990600090a350565b600954600160a01b900460ff16151560011461083d5760405162461bcd60e51b815260206004820152605560248201527f596f75206e65656420746f2063686f6f7365207468652077696e6e657220666f60448201527f72207468652063757272656e74204c6f74746572792c206265666f726520796f606482015274752063616e2073746172742061206e6577206f6e6560581b608482015260a401610416565b42600681905560045461084f916112ca565b600755600980546001600160a81b031916905560405142907ff556261b4ccfc0838ba2c4fc9d25fe55540fae12264f96d73e82b2ede618b14d90600090a2565b6000546001600160a01b031633146108b95760405162461bcd60e51b815260040161041690611295565b6108c36000610d30565b565b600954600160a01b900460ff1615156001146109575760405162461bcd60e51b815260206004820152604560248201527f596f752063616e206f6e6c79206368616e67652074686520656e74727920707260448201527f696365206166746572207468652077696e6e657220686173206265656e2063686064820152646f73656e2160d81b608482015260a401610416565b600881905560405181907f68ea16a5b1315194f5b4ec6b3b84759f19b2a93da7cc8b4ba0e020ec68868cdb90600090a250565b336001600160a01b037f00000000000000000000000000000000000000000000000000000000000000001614610a025760405162461bcd60e51b815260206004820152601f60248201527f4f6e6c7920565246436f6f7264696e61746f722063616e2066756c66696c6c006044820152606401610416565b610a0c8282610d80565b5050565b6000546001600160a01b03163314610a3a5760405162461bcd60e51b815260040161041690611295565b60026001541415610a8d5760405162461bcd60e51b815260206004820152601f60248201527f5265656e7472616e637947756172643a207265656e7472616e742063616c6c006044820152606401610416565b6002600155600e54610ad65760405162461bcd60e51b81526020600482015260126024820152714e6f2070726f6669747320746f2074616b6560701b6044820152606401610416565b600e5460405160009133918381818185875af1925050503d8060008114610b19576040519150601f19603f3d011682016040523d82523d6000602084013e610b1e565b606091505b5050905080610b665760405162461bcd60e51b81526020600482015260146024820152732330b4b632b2103a379039b2b7321022ba3432b960611b6044820152606401610416565b506000600e5560018055565b600454600654610b8291906112ca565b42811115610bd25760405162461bcd60e51b815260206004820152601d60248201527f546865206c6f747465727920686173206e6f7420656e646564207965740000006044820152606401610416565b600a5460021115610c335760405162461bcd60e51b815260206004820152602560248201527f546865726520617265206e6f7420656e6f756768207061727469636970616e746044820152641cc81e595d60da1b6064820152608401610416565b600954600160a01b900460ff1615610c8d5760405162461bcd60e51b815260206004820152601c60248201527f5468652074696d6520686173206e6f742072756e206f757420796574000000006044820152606401610416565b610a0c610d9b565b6000546001600160a01b03163314610cbf5760405162461bcd60e51b815260040161041690611295565b6001600160a01b038116610d245760405162461bcd60e51b815260206004820152602660248201527f4f776e61626c653a206e6577206f776e657220697320746865207a65726f206160448201526564647265737360d01b6064820152608401610416565b610d2d81610d30565b50565b600080546001600160a01b038381166001600160a01b0319831681178455604051919092169283917f8be0079c531659141344cd1fd0a4f28419497f9722a3daafe3b4186f6b6457e09190a35050565b600a54610d8d9082611315565b600d819055610a0c90610eae565b600c546040516370a0823160e01b8152306004820152600091906001600160a01b037f000000000000000000000000000000000000000000000000000000000000000016906370a082319060240160206040518083038186803b158015610e0157600080fd5b505afa158015610e15573d6000803e3d6000fd5b505050506040513d601f19601f82011682018060405250810190610e399190611210565b1015610e9b5760405162461bcd60e51b815260206004820152602b60248201527f4e6f7420656e6f756768204c494e4b202d2066696c6c20636f6e74726163742060448201526a1dda5d1a0819985d58d95d60aa1b6064820152608401610416565b610ea9600b54600c54610fca565b905090565b600a8181548110610ec157610ec1611355565b600091825260209091200154600980546001600160a01b0319166001600160a01b03909216919091178155600354600a91610efc91906112f6565b610f0691906112e2565b6009546001600160a01b031660009081526005602052604081208054909190610f309084906112ca565b9091555050600354600a90610f469060016112f6565b610f5091906112e2565b600e6000828254610f6191906112ca565b90915550610f739050600a600061115d565b6003546009546040514292916001600160a01b0316907f6dd0b2121dce90773c041fb342cc6821b9153f739deea4c04e0c12bfd498852290600090a45060006003556009805460ff60a01b1916600160a01b179055565b60007f00000000000000000000000000000000000000000000000000000000000000006001600160a01b0316634000aea07f00000000000000000000000000000000000000000000000000000000000000008486600060405160200161103a929190918252602082015260400190565b6040516020818303038152906040526040518463ffffffff1660e01b815260040161106793929190611229565b602060405180830381600087803b15801561108157600080fd5b505af1158015611095573d6000803e3d6000fd5b505050506040513d601f19601f820116820180604052508101906110b991906111b3565b50600083815260026020818152604080842054815180840189905280830186905230606082015260808082018390528351808303909101815260a0909101909252815191830191909120938790529190526111159060016112ca565b6000858152600260205260409020556111558482604080516020808201949094528082019290925280518083038201815260609092019052805191012090565b949350505050565b5080546000825590600052602060002090810190610d2d91905b8082111561118b5760008155600101611177565b5090565b6000602082840312156111a157600080fd5b81356111ac8161136b565b9392505050565b6000602082840312156111c557600080fd5b815180151581146111ac57600080fd5b600080604083850312156111e857600080fd5b50508035926020909101359150565b60006020828403121561120957600080fd5b5035919050565b60006020828403121561122257600080fd5b5051919050565b60018060a01b038416815260006020848184015260606040840152835180606085015260005b8181101561126b5785810183015185820160800152820161124f565b8181111561127d576000608083870101525b50601f01601f19169290920160800195945050505050565b6020808252818101527f4f776e61626c653a2063616c6c6572206973206e6f7420746865206f776e6572604082015260600190565b600082198211156112dd576112dd611329565b500190565b6000826112f1576112f161133f565b500490565b600081600019048311821515161561131057611310611329565b500290565b6000826113245761132461133f565b500690565b634e487b7160e01b600052601160045260246000fd5b634e487b7160e01b600052601260045260246000fd5b634e487b7160e01b600052603260045260246000fd5b6001600160a01b0381168114610d2d57600080fdfea26469706673582212207c5109cafeefed761b4a5e90271e9b2b15b7ec49e5abe541aa9cc33595502bbd64736f6c63430008070033",
  "linkReferences": {},
  "deployedLinkReferences": {}
}