{
  "_format": "hh-sol-artifact-1",
  "contractName": "Lottery",
  "sourceName": "contracts/Lottery.sol",
  "abi": [
    {
      "inputs": [
        {
          "internalType": "address",
          "name": "vrfCoordinator",
          "type": "address"
        },
        {
          "internalType": "address",
          "name": "link",
          "type": "address"
        },
        {
          "internalType": "bytes32",
          "name": "_keyHash",
          "type": "bytes32"
        },
        {
          "internalType": "uint256",
          "name": "_fee",
          "type": "uint256"
        }
      ],
      "stateMutability": "nonpayable",
      "type": "constructor"
    },
    {
      "anonymous": false,
      "inputs": [
        {
          "indexed": true,
          "internalType": "address",
          "name": "previousOwner",
          "type": "address"
        },
        {
          "indexed": true,
          "internalType": "address",
          "name": "newOwner",
          "type": "address"
        }
      ],
      "name": "OwnershipTransferred",
      "type": "event"
    },
    {
      "anonymous": false,
      "inputs": [
        {
          "indexed": true,
          "internalType": "address",
          "name": "_winner",
          "type": "address"
        },
        {
          "indexed": true,
          "internalType": "uint256",
          "name": "totalWinning",
          "type": "uint256"
        },
        {
          "indexed": true,
          "internalType": "uint256",
          "name": "time",
          "type": "uint256"
        }
      ],
      "name": "lotteryEnd",
      "type": "event"
    },
    {
      "anonymous": false,
      "inputs": [
        {
          "indexed": true,
          "internalType": "uint256",
          "name": "time",
          "type": "uint256"
        }
      ],
      "name": "newLotteryStarted",
      "type": "event"
    },
    {
      "anonymous": false,
      "inputs": [
        {
          "indexed": true,
          "internalType": "address",
          "name": "newEntry",
          "type": "address"
        },
        {
          "indexed": true,
          "internalType": "uint256",
          "name": "time",
          "type": "uint256"
        }
      ],
      "name": "newParticipant",
      "type": "event"
    },
    {
      "inputs": [],
      "name": "chooseWinner",
      "outputs": [],
      "stateMutability": "nonpayable",
      "type": "function"
    },
    {
      "inputs": [],
      "name": "endTime",
      "outputs": [
        {
          "internalType": "uint256",
          "name": "",
          "type": "uint256"
        }
      ],
      "stateMutability": "view",
      "type": "function"
    },
    {
      "inputs": [],
      "name": "enterPool",
      "outputs": [],
      "stateMutability": "payable",
      "type": "function"
    },
    {
      "inputs": [
        {
          "internalType": "uint256",
          "name": "newPrice",
          "type": "uint256"
        }
      ],
      "name": "entryPriceInWei",
      "outputs": [],
      "stateMutability": "nonpayable",
      "type": "function"
    },
    {
      "inputs": [],
      "name": "getArrayLength",
      "outputs": [
        {
          "internalType": "uint256",
          "name": "length",
          "type": "uint256"
        }
      ],
      "stateMutability": "view",
      "type": "function"
    },
    {
      "inputs": [],
      "name": "getBalance",
      "outputs": [
        {
          "internalType": "uint256",
          "name": "contractBalance",
          "type": "uint256"
        }
      ],
      "stateMutability": "view",
      "type": "function"
    },
    {
      "inputs": [],
      "name": "lotteryProfitsWithdraw",
      "outputs": [],
      "stateMutability": "nonpayable",
      "type": "function"
    },
    {
      "inputs": [],
      "name": "owner",
      "outputs": [
        {
          "internalType": "address",
          "name": "",
          "type": "address"
        }
      ],
      "stateMutability": "view",
      "type": "function"
    },
    {
      "inputs": [
        {
          "internalType": "uint256",
          "name": "",
          "type": "uint256"
        }
      ],
      "name": "participants",
      "outputs": [
        {
          "internalType": "address payable",
          "name": "",
          "type": "address"
        }
      ],
      "stateMutability": "view",
      "type": "function"
    },
    {
      "inputs": [],
      "name": "price",
      "outputs": [
        {
          "internalType": "uint256",
          "name": "",
          "type": "uint256"
        }
      ],
      "stateMutability": "view",
      "type": "function"
    },
    {
      "inputs": [],
      "name": "randomResult",
      "outputs": [
        {
          "internalType": "uint256",
          "name": "",
          "type": "uint256"
        }
      ],
      "stateMutability": "view",
      "type": "function"
    },
    {
      "inputs": [
        {
          "internalType": "bytes32",
          "name": "requestId",
          "type": "bytes32"
        },
        {
          "internalType": "uint256",
          "name": "randomness",
          "type": "uint256"
        }
      ],
      "name": "rawFulfillRandomness",
      "outputs": [],
      "stateMutability": "nonpayable",
      "type": "function"
    },
    {
      "inputs": [],
      "name": "renounceOwnership",
      "outputs": [],
      "stateMutability": "nonpayable",
      "type": "function"
    },
    {
      "inputs": [
        {
          "internalType": "uint256",
          "name": "newTime",
          "type": "uint256"
        }
      ],
      "name": "settingTimeInSeconds",
      "outputs": [],
      "stateMutability": "nonpayable",
      "type": "function"
    },
    {
      "inputs": [],
      "name": "startNewLottery",
      "outputs": [],
      "stateMutability": "nonpayable",
      "type": "function"
    },
    {
      "inputs": [],
      "name": "startTime",
      "outputs": [
        {
          "internalType": "uint256",
          "name": "",
          "type": "uint256"
        }
      ],
      "stateMutability": "view",
      "type": "function"
    },
    {
      "inputs": [],
      "name": "time",
      "outputs": [
        {
          "internalType": "uint256",
          "name": "",
          "type": "uint256"
        }
      ],
      "stateMutability": "view",
      "type": "function"
    },
    {
      "inputs": [],
      "name": "totalCurrentPool",
      "outputs": [
        {
          "internalType": "uint256",
          "name": "",
          "type": "uint256"
        }
      ],
      "stateMutability": "view",
      "type": "function"
    },
    {
      "inputs": [
        {
          "internalType": "address",
          "name": "newOwner",
          "type": "address"
        }
      ],
      "name": "transferOwnership",
      "outputs": [],
      "stateMutability": "nonpayable",
      "type": "function"
    },
    {
      "inputs": [],
      "name": "winner",
      "outputs": [
        {
          "internalType": "address payable",
          "name": "",
          "type": "address"
        }
      ],
      "stateMutability": "view",
      "type": "function"
    },
    {
      "inputs": [
        {
          "internalType": "address payable",
          "name": "_receiver",
          "type": "address"
        }
      ],
      "name": "withdrawPrice",
      "outputs": [],
      "stateMutability": "nonpayable",
      "type": "function"
    }
  ],
  "bytecode": "0x60c0604052600a60045566071afd498d00006008556009805460ff60a01b191690553480156200002e57600080fd5b506040516200158b3803806200158b833981016040819052620000519162000114565b83836200005e33620000a7565b600180556001600160601b0319606092831b811660a052911b16608052600b829055600c81905542600681905560045462000099916200015c565b600755506200018392505050565b600080546001600160a01b038381166001600160a01b0319831681178455604051919092169283917f8be0079c531659141344cd1fd0a4f28419497f9722a3daafe3b4186f6b6457e09190a35050565b80516001600160a01b03811681146200010f57600080fd5b919050565b600080600080608085870312156200012b57600080fd5b6200013685620000f7565b93506200014660208601620000f7565b6040860151606090960151949790965092505050565b600082198211156200017e57634e487b7160e01b600052601160045260246000fd5b500190565b60805160601c60a05160601c6113ce620001bd600039600081816109830152611015015260008181610dd70152610fe601526113ce6000f3fe60806040526004361061012a5760003560e01c8063715018a6116100ab578063a012d27c1161006f578063a012d27c146102c8578063a035b1fe146102de578063c86994b1146102f4578063cd38aa8714610309578063dfbf53ae1461031e578063f2fde38b1461033e57600080fd5b8063715018a61461023f57806378e97925146102545780637bd3d6b91461026a5780638da5cb5b1461028a57806394985ddd146102a857600080fd5b806335c1d349116100f257806335c1d349146101b457806340dba069146101ec57806342619f661461020c57806350a3bd39146102225780635727cb591461022a57600080fd5b80630849cc991461012f57806312065fe01461015357806316ada547146101665780631c36d86e1461017c5780633197cbb61461019e575b600080fd5b34801561013b57600080fd5b50600a545b6040519081526020015b60405180910390f35b34801561015f57600080fd5b5047610140565b34801561017257600080fd5b5061014060045481565b34801561018857600080fd5b5061019c61019736600461120f565b61035e565b005b3480156101aa57600080fd5b5061014060075481565b3480156101c057600080fd5b506101d46101cf36600461120f565b61041a565b6040516001600160a01b03909116815260200161014a565b3480156101f857600080fd5b5061019c6102073660046111a7565b610444565b34801561021857600080fd5b50610140600d5481565b61019c6105b4565b34801561023657600080fd5b5061019c610763565b34801561024b57600080fd5b5061019c610881565b34801561026057600080fd5b5061014060065481565b34801561027657600080fd5b5061019c61028536600461120f565b6108b7565b34801561029657600080fd5b506000546001600160a01b03166101d4565b3480156102b457600080fd5b5061019c6102c33660046111ed565b610978565b3480156102d457600080fd5b5061014060035481565b3480156102ea57600080fd5b5061014060085481565b34801561030057600080fd5b5061019c6109fe565b34801561031557600080fd5b5061019c610b60565b34801561032a57600080fd5b506009546101d4906001600160a01b031681565b34801561034a57600080fd5b5061019c6103593660046111a7565b610cad565b6000546001600160a01b031633146103915760405162461bcd60e51b8152600401610388906112ad565b60405180910390fd5b600954600160a01b900460ff1615156001146104155760405162461bcd60e51b815260206004820152603e60248201527f596f752063616e206f6e6c79206368616e6765207468652074696d652061667460448201527f6572207468652077696e6e657220686173206265656e2063686f73656e2100006064820152608401610388565b600455565b600a818154811061042a57600080fd5b6000918252602090912001546001600160a01b0316905081565b600260015414156104975760405162461bcd60e51b815260206004820152601f60248201527f5265656e7472616e637947756172643a207265656e7472616e742063616c6c006044820152606401610388565b6002600155336000908152600560205260409020546104f85760405162461bcd60e51b815260206004820152601e60248201527f596f752068617665206e6f7420776f6e2061206c6f74746572792079657400006044820152606401610388565b336000908152600560205260408082205490516001600160a01b03841691908381818185875af1925050503d806000811461054f576040519150601f19603f3d011682016040523d82523d6000602084013e610554565b606091505b505090508061059c5760405162461bcd60e51b81526020600482015260146024820152732330b4b632b2103a379039b2b7321022ba3432b960611b6044820152606401610388565b50503360009081526005602052604081205560018055565b60085434146106055760405162461bcd60e51b815260206004820152601f60248201527f596f75206e65656420746f2070617920746865206578616374207072696365006044820152606401610388565b60045460065461061591906112e2565b42811015806106265750600a546002115b61067d5760405162461bcd60e51b815260206004820152602260248201527f596f752063616e6e6f7420656e746572207468697320706f6f6c20616e796d6f604482015261726560f01b6064820152608401610388565b600954600160a01b900460ff16156106d75760405162461bcd60e51b815260206004820152601f60248201527f41206e6577206c6f74746572792068617320746f2062652073746172746564006044820152606401610388565b600a805460018101825560009182527fc65a7bb8d6351c1cf70c95a316cc6a92839c986682d98bc35f958f4883f9d2a80180546001600160a01b03191633179055600854600380549192909161072e9084906112e2565b9091555050604051429033907f17ff06cf26b043c3dc035cf5412cea1a1de2708387010fcf4a9fb22a80d43c6990600090a350565b6000546001600160a01b0316331461078d5760405162461bcd60e51b8152600401610388906112ad565b600954600160a01b900460ff16151560011461082f5760405162461bcd60e51b815260206004820152605560248201527f596f75206e65656420746f2063686f6f7365207468652077696e6e657220666f60448201527f72207468652063757272656e74204c6f74746572792c206265666f726520796f606482015274752063616e2073746172742061206e6577206f6e6560581b608482015260a401610388565b426006819055600454610841916112e2565b600755600980546001600160a81b031916905560405142907ff556261b4ccfc0838ba2c4fc9d25fe55540fae12264f96d73e82b2ede618b14d90600090a2565b6000546001600160a01b031633146108ab5760405162461bcd60e51b8152600401610388906112ad565b6108b56000610d48565b565b6000546001600160a01b031633146108e15760405162461bcd60e51b8152600401610388906112ad565b600954600160a01b900460ff1615156001146109735760405162461bcd60e51b815260206004820152604560248201527f596f752063616e206f6e6c79206368616e67652074686520656e74727920707260448201527f696365206166746572207468652077696e6e657220686173206265656e2063686064820152646f73656e2160d81b608482015260a401610388565b600855565b336001600160a01b037f000000000000000000000000000000000000000000000000000000000000000016146109f05760405162461bcd60e51b815260206004820152601f60248201527f4f6e6c7920565246436f6f7264696e61746f722063616e2066756c66696c6c006044820152606401610388565b6109fa8282610d98565b5050565b6000546001600160a01b03163314610a285760405162461bcd60e51b8152600401610388906112ad565b60026001541415610a7b5760405162461bcd60e51b815260206004820152601f60248201527f5265656e7472616e637947756172643a207265656e7472616e742063616c6c006044820152606401610388565b6002600155600e54610ac45760405162461bcd60e51b81526020600482015260126024820152714e6f2070726f6669747320746f2074616b6560701b6044820152606401610388565b600e5460405160009133918381818185875af1925050503d8060008114610b07576040519150601f19603f3d011682016040523d82523d6000602084013e610b0c565b606091505b5050905080610b545760405162461bcd60e51b81526020600482015260146024820152732330b4b632b2103a379039b2b7321022ba3432b960611b6044820152606401610388565b506000600e5560018055565b6000546001600160a01b03163314610b8a5760405162461bcd60e51b8152600401610388906112ad565b600454600654610b9a91906112e2565b42811115610bea5760405162461bcd60e51b815260206004820152601d60248201527f546865206c6f747465727920686173206e6f7420656e646564207965740000006044820152606401610388565b600a5460021115610c4b5760405162461bcd60e51b815260206004820152602560248201527f546865726520617265206e6f7420656e6f756768207061727469636970616e746044820152641cc81e595d60da1b6064820152608401610388565b600954600160a01b900460ff1615610ca55760405162461bcd60e51b815260206004820152601c60248201527f5468652074696d6520686173206e6f742072756e206f757420796574000000006044820152606401610388565b6109fa610db3565b6000546001600160a01b03163314610cd75760405162461bcd60e51b8152600401610388906112ad565b6001600160a01b038116610d3c5760405162461bcd60e51b815260206004820152602660248201527f4f776e61626c653a206e6577206f776e657220697320746865207a65726f206160448201526564647265737360d01b6064820152608401610388565b610d4581610d48565b50565b600080546001600160a01b038381166001600160a01b0319831681178455604051919092169283917f8be0079c531659141344cd1fd0a4f28419497f9722a3daafe3b4186f6b6457e09190a35050565b600a54610da5908261132d565b600d8190556109fa90610ec6565b600c546040516370a0823160e01b8152306004820152600091906001600160a01b037f000000000000000000000000000000000000000000000000000000000000000016906370a082319060240160206040518083038186803b158015610e1957600080fd5b505afa158015610e2d573d6000803e3d6000fd5b505050506040513d601f19601f82011682018060405250810190610e519190611228565b1015610eb35760405162461bcd60e51b815260206004820152602b60248201527f4e6f7420656e6f756768204c494e4b202d2066696c6c20636f6e74726163742060448201526a1dda5d1a0819985d58d95d60aa1b6064820152608401610388565b610ec1600b54600c54610fe2565b905090565b600a8181548110610ed957610ed961136d565b600091825260209091200154600980546001600160a01b0319166001600160a01b03909216919091178155600354600a91610f14919061130e565b610f1e91906112fa565b6009546001600160a01b031660009081526005602052604081208054909190610f489084906112e2565b9091555050600354600a90610f5e90600161130e565b610f6891906112fa565b600e6000828254610f7991906112e2565b90915550610f8b9050600a6000611175565b6003546009546040514292916001600160a01b0316907f1880a02bac222cd23877be33bb97e0b9ce8a1437fa2622ee8b1d6496abd79cff90600090a45060006003556009805460ff60a01b1916600160a01b179055565b60007f00000000000000000000000000000000000000000000000000000000000000006001600160a01b0316634000aea07f000000000000000000000000000000000000000000000000000000000000000084866000604051602001611052929190918252602082015260400190565b6040516020818303038152906040526040518463ffffffff1660e01b815260040161107f93929190611241565b602060405180830381600087803b15801561109957600080fd5b505af11580156110ad573d6000803e3d6000fd5b505050506040513d601f19601f820116820180604052508101906110d191906111cb565b50600083815260026020818152604080842054815180840189905280830186905230606082015260808082018390528351808303909101815260a09091019092528151918301919091209387905291905261112d9060016112e2565b60008581526002602052604090205561116d8482604080516020808201949094528082019290925280518083038201815260609092019052805191012090565b949350505050565b5080546000825590600052602060002090810190610d4591905b808211156111a3576000815560010161118f565b5090565b6000602082840312156111b957600080fd5b81356111c481611383565b9392505050565b6000602082840312156111dd57600080fd5b815180151581146111c457600080fd5b6000806040838503121561120057600080fd5b50508035926020909101359150565b60006020828403121561122157600080fd5b5035919050565b60006020828403121561123a57600080fd5b5051919050565b60018060a01b038416815260006020848184015260606040840152835180606085015260005b8181101561128357858101830151858201608001528201611267565b81811115611295576000608083870101525b50601f01601f19169290920160800195945050505050565b6020808252818101527f4f776e61626c653a2063616c6c6572206973206e6f7420746865206f776e6572604082015260600190565b600082198211156112f5576112f5611341565b500190565b60008261130957611309611357565b500490565b600081600019048311821515161561132857611328611341565b500290565b60008261133c5761133c611357565b500690565b634e487b7160e01b600052601160045260246000fd5b634e487b7160e01b600052601260045260246000fd5b634e487b7160e01b600052603260045260246000fd5b6001600160a01b0381168114610d4557600080fdfea2646970667358221220f7ae4f09bacca8a9178710aa12525c382a5f88307d74b2948a43212a90d8989564736f6c63430008070033",
  "linkReferences": {},
  "deployedLinkReferences": {}
}